:040000008A11112828
:10000800FE00030EF1000408F2000A08F300831250
:1000180003137F08F4008A11F6298A111328F701BF
:1000280083133B3084004D308A117B228A1156306D
:10003800FD000230FE007230FF004D3084008A114E
:100048004A2283018A1128288A1183228A118A1157
:1000580016228A118A1133228A11333084004330E0
:1000680083120313A2000408A3000830A400220886
:10007800840083130008A500A20A23088400250829
:100088008000A30AA40B3B28B201A6010430A200F9
:100098002208F500F601F60A02308A11DB208A11DF
:1000A80033308A118D218A11831203133A083206DC
:1000B800031DCE28273084004D30A2000408A30079
:1000C8000930A4002208840083130008A500A20AAE
:1000D8002308840025088000A30AA40B6628B00121
:1000E800B1014B084C04031D7F280430A2002208EC
:1000F800A8002B3088284B034C04031D9228043099
:10010800A2002208A8009030A2002208AA0001300C
:10011800CB070318CC0A0030CC079B2802304B06CB
:100128004C04031D9B28A801AA01CB01CC0183160E
:100138000313981CB728831203133008273E840042
:1001480083130008A200A3012208F5002308F60083
:100158008A118A228A11013083120313B007031807
:10016800B10A0030B10783123108803AFF008030AD
:100178007F02031DC12809303002031C9B2883120B
:1001880003133208031DCA280130CB280030A2000F
:100198002208B2003A03031DD32807304B28073042
:1001A80083120313A2002208F500F60150288312D7
:1001B8000313A000A10181297608031D0514031962
:1001C800051008007608031D85140319851008001A
:1001D8007608031D05150319051108007608031D87
:1001E80085150319851108007608031D05160319DE
:1001F800051208007608031D8516031985120800E4
:10020800A101A10A08007508840006300402031839
:10021800042902308A000310040D663E820008009B
:100228007608031D06160319061208007608031D32
:1002380086160319861208007608031D0617031987
:10024800061308007608031D86170319861308008D
:10025800A101A10A08007508043A03191429013AF2
:1002680003191A29033A03192029013A03192629DF
:100278002C2908007608031D071403190710080025
:100288007608031D87140319871008007608031DD4
:1002980007150319071108007608031D87150319A8
:1002A800871108007608031D0716031907120800AE
:1002B8007608031D87160319871208007608031DA0
:1002C80007170319071308007608031D8717031972
:1002D80087130800A101A10A0800750884000830E6
:1002E800040203186E2902308A000310040D563EDA
:1002F80082000800A101A10A08002008003A031999
:100308000729013A03192F29033A031971297E296C
:100318000800F6008B137703031DF429F701013059
:10032800F500760A84007508831380077608053E71
:1003380084000008031DA2290130A3290030F5001C
:100348007608053E840075088000760A84006430CB
:100358000006031DF4290130F5007608023E8400EA
:10036800750880077608063E84000008031DBE292C
:100378000130BF290030F5007608063E8400750874
:100388008000760A840080017608023E84000A30E4
:100398000006031DF4290130F5007608033E8400A9
:1003A800750880077608073E84000008031DDE29CB
:1003B8000130DF290030F5007608073E8400750813
:1003C80080007608023E840080017608033E84009F
:1003D8000A300006031DF4297608033E84008001D4
:1003E8008B1708008B1A0B1DFF290130F0007008CD
:1003F800F7000B110B2A831603130C1C092A83120E
:1004080003130C1C092A0C100B2A83120C087408FD
:10041800FF0073088A0072088400710E8300FE0EC4
:100428007E0E090083160313870185018601831256
:10043800031387018501860183160313950183122F
:1004480003179E019F018B170B1783160313811245
:1004580081110108F839013881008B1608008316CC
:10046800031386168613CF3099009A01981618122E
:1004780018158312031398171816831603139B1560
:100488008C1208007E088A007F08820046228A11A2
:100498008000840A04087D0603190034FF0A031942
:1004A800FE0A4A2A8A113E298A1144298A114A29B0
:1004B8008A1150298A1156298A115C298A116229C0
:1004C8008A1168298A11E0288A11E6288A11EC28FD
:1004D8008A11F2288A11F8288A11FE28FD3400347E
:1004E8000034003400340034003400340034640034
:1004F8008001840A04060319003404067C2A831642
:1005080003130F178F160F160F14080075088312A0
:0605180003139900080026
:02400E00D5FFDC
:00000001FF
